:020000040000fa
:100000000200d2021003000000000002100b0000ea
:10001000000000021013000000000002101b00008e
:10002000000000021023000000000002102b00005e
:10003000000000021033000000000002103b00002e
:10004000000000021043000000000002104b0000fe
:10005000000000021053000000000002105b0000ce
:10006000000000021063000000000002106b00009e
:10007000000000021073000000000002107b00006e
:10008000000000021083000000000002108b00003e
:10009000000000020931e4900002781a790280021f
:1000a000f0a3d8fcd9fa7a1b7b019000e478107990
:1000b000018015e493a3ad82ae838a828b83f0a383
:1000c000aa82ab838d828e83d8e9d9e71205841288
:1000d000095075d00075813f751c8075931e539231
:1000e000fe020096001000100000f800ffff001054
:1000f0000000ffe4936670130874019366700c08a7
:10010000740293667005087403936622c3e0960830
:10011000a3e09608a3e09608a3e09622c008c3e0f7
:1001200096f50808a3e096420808a3e0964208085e
:10013000a3e09645087001d3d00822c3e493960843
:100140007401939608740293960874039396226040
:1001500016080808c6c313c618c613c618c613c6a1
:1001600018c613c6d5e0ea22e026f008a3e036f070
:1001700008a3e036f008a3e036f022e056f608a324
:10018000e056f608a3e056f608a3e056f622e0f69d
:1001900008a3e0f608a3e0f608a3e0f622c9c0e051
:1001a000e7f20809e7f20809e7f20809e7f2d0e008
:1001b000f922e6f008a3e6f008a3e6f008a3e6f0cb
:1001c00022cac0e0e6f30908dafad0e0fa22cac08f
:1001d000e0e2f30908dafad0e0fa22700422600db6
:1001e00018c6c333c608c633c6d5e0f41822e47374
:1001f0005392fed083d082251cf8c51cc39824fbe3
:10020000cef208e520f208e9c0e07908e709f20833
:10021000defad0e0f9eff208d0e0fed0e0f208ee2e
:10022000f208e473a81ce2fe08e208f520e9c0e049
:100230007908e208f709dffae208ffd0e0f9e208fe
:10024000c0e0e208c0e0881c5392fe22e584f20878
:10025000e585f222e208f584e2f585227402800049
:10026000c9c0e0e51cc399f51cc91201c1d0e0f971
:100270002274028000c9c0e0e51cc399f51cc912b4
:1002800001ced0e0f922d083d082ecc0e0edc0e016
:10029000eec0e0efc0e0e493a3fce493a3fde4939d
:1002a000a3fee493a3ffef4e4d4c6015120302ec46
:1002b00024fffced34fffdee34fffeef34ffff8042
:1002c000e5e493a3fce493a3fde493a3fee493a3ea
:1002d000ffef4e4d4c601512033fec24fffced3454
:1002e000fffdee34fffeef34ffff80e5d0e0ffd0ee
:1002f000e0fed0e0fdd0e0fce493a3c0e0e493c0d6
:10030000e022c0e0c0f088f012013ba8f0400712e4
:1003100000f3a8f0701aa3a3a3a312013ba8f0a3b3
:10032000a3a3a34013d0f0d0e0d0e0d0e00202ecd1
:10033000a3a3a3a3a3a3a3a3a3a3d0f0d0e022c00d
:10034000e0c0f088f01200f3a8f0a3a3a3a3700b01
:10035000d0f0d0e0d0e0d0e00202eca3a3d0f0d007
:10036000e02275bc0075bc005392fe22800f8a8289
:100370008b835392fee0f5bda3aa82ab83ecf8ed2c
:10038000f9e824ff1ce934fffde84970e15392fecf
:1003900022e5bdf9e5bcfae9fb5392fe227400f5b3
:1003a000d374022408f5d25392fe22a2afe433f8ac
:1003b000c2af5392fe906270e0a2e740f5e9c3330a
:1003c000906272f0906270e0d2e0f0e0a2e740fb51
:1003d000e8a2e092af2274fa1201f0a2af33f8c2a1
:1003e000afed900002f0eca3f0a37462f0a374737d
:1003f000f0a3e4f0e9a3f0a37412f0a37442f0ebcd
:10040000906272f0ea906271f07400f5d575d402d2
:1004100075d601906270e0d2e1f0e0a2e740fbe81f
:10042000a2e092af7f010202245392fe906276e036
:1004300054706430700478038002780775c6807445
:1004400080659e70fa9062707408f088c790ff2ce7
:10045000e0f5f190ff2be0f8700b90ff301204a351
:1004600090ff06800e740168701890ff021204a3ba
:1004700090ff30e0f5f8a3e0f5fba3e0f5fca3e086
:10048000f5faa2fe500ee5f1a2e14008e5ff543f67
:100490004440f5ff90ff2de0f5f3a3e0f5f4a3e071
:1004a000f5f522e0f586a3e0f5c4a3e0f5c5a3e0e9
:1004b000f5c222c008c0098908750900740b7808c4
:1004c0001201dbfae5094480fbd009d0085392fe03
:1004d0002274f71201f0909093e064bf7063e5c757
:1004e000f50812036275c7007c937d007a007b904b
:1004f00012036c7c5d7d077aa37b9012036c909055
:1005000094e014f5097f00801674032ffef912049d
:10051000b3eec4540ff5c77c007d0812036c0fefd7
:10052000c3950940e48508c71203918a088b09a87e
:1005300008a909909095e0687003a3e069703e8077
:1005400038e5c7f5087fa57e02eef91204b38a826a
:100550008b83eec4540ff5c778007908e02fffa312
:10056000e824ff18e934fff9e84970f00eeec3946f
:100570003040d68508c7ef70047901800279007f8a
:1005800004020224e51c24ecf51c5392fe900001a9
:10059000e090001af0e59d541864107005e0a2e0a8
:1005a0004035e5c7f8790075c700909000e0640217
:1005b00070010988c7e9a2e0501d1204d1e9601753
:1005c0009000017403f0059290011be0f582a3e016
:1005d000f58305921201ee120429900001e4f01255
:1005e000039d1207cd1207b112019d780812025c1b
:1005f0001207941205ff051c051c12090380fbee6f
:10060000c0e0a81c1202711207e9051c051cd0e00d
:10061000fe2274f71201f0151c151ca81c12024cc6
:10062000e51c24ecf51ceafeebffee2404f584e463
:100630003ff5858e828f83780812018e9001217894
:100640000812017b780812028600000000050000f5
:1006500000000000006d07000009006d07000009a0
:1006600001710600000902c906000009036507a41c
:10067000060592780812018e0592900125780812dd
:10068000011c4032120780f2087480f2087401f2f3
:10069000e4f508f509780812025c1207941205ffc8
:1006a000051c051ce51c2414f51ca81c120254058d
:1006b0001c051c02057f90011d78081201b212076b
:1006c00080f208e4f208f280c8906276e054706428
:1006d000307508007509007005750a028003750af7
:1006e00004750b0090011d780812010c400c1207d4
:1006f000a97482f2087401f2809b90011d7808129f
:10070000018ee5095407f9e50849701490011d7838
:100710000812018e740b780812014fa9081203ab5e
:100720000592e0f9ee2405fce43ffd059290011de1
:10073000780812018e7402780812014faa08ab09da
:100740001203d60592e0f508e4f509f50af50b0564
:100750009290011d78081201681207a9e4f208f2cc
:10076000f50802069512078674030206c10592e099
:1007700060091207b112019d02069575c90880fe35
:10078000120786740122e4a81cf2087402f20874ad
:1007900009f208227c007d00e51c2402faab93e5f7
:1007a0001c2403f8e22404f9221207867402f208da
:1007b00022a81c7480f2087404f2087409f208e498
:1007c000f2f508f509f50af50b087408225392feb4
:1007d00090ff2be0f87006900129e4f02274016884
:1007e00070069001297401f02274fa1201f0151cb0
:1007f000151ca81c12024ce9fe8a828b83e51c247e
:1008000008f8e2fa08e2fb0592900129e0704c53e7
:1008100086bfeeff74ff2f1e046036e586a2e0401f
:10082000fa5386fd5392fee0f5c1a3e586a2e140ae
:10083000e180f8e586a2e040fa5386fd8a828b8348
:100840005392fee0f5c1a3aa82ab83e586a2e150f4
:10085000fa1208f470dd4386408041e06401703c88
:10086000c2fe74ff2e1e04602ca2f840fcc2f95395
:1008700092fee0f5f9a3a2f940e880faa2f840fc64
:10088000c2f98a828b835392fee0f5f9a3aa82ab68
:1008900083a2f950fc1208f470e2d2fea81c1202e6
:1008a00054051c051c7f01020224c084c0858011f0
:1008b000e586a2e2500be5c18a828b83f0aa84ab65
:1008c000851208f46026e586a2e24004a2fa50f6fa
:1008d0008a848b85439201a30592900129e060d020
:1008e000640170dda2fa50d9e5f980ccd085d084be
:1008f0005392fe22ecf8edf9e824ff1ce934fffde9
:10090000e849227c047d007a1b7b001208aa900033
:100910001be05407f9a3e0fce9fdec4d60077a1fea
:100920007b001208aa7a1b7b00120612225392fe49
:100930002274fa1201f0151c151ceafeebffa81c2c
:10094000eef208eff2aa1cab93790112092d80eeaa
:1009500012009322ffffffffffffffffffffffffdc
:10096000ffffffffffffffffffffffffffffffff97
:10097000ffffffffffffffffffffffffffffffff87
:10098000ffffffffffffffffffffffffffffffff77
:10099000ffffffffffffffffffffffffffffffff67
:100f000012010002000000205824feff0000010230
:100f1000030109021b0001010480250904000000ef
:100f2000fe01020409210d03e84000010104030948
:100f300004120342006c00750065006700690067d9
:100f400000610016034c006f007700200045006e22
:100f50000065007200670079000a03310032003337
:100f6000003400080344004600550000ffffffff67
:100f7000ffffffffffffffffffffffffffffffff81
:100f8000ffffffffffffffffffffffffffffffff71
:100f9000ffffffffffffffffffffffffffffffff61
:100fa000ffffffffffffffffffffffffffffffff51
:100fb000ffffffffffffffffffffffffffffffff41
:100fc000ffffffffffffffffffffffffffffffff31
:100fd000ffffffffffffffffffffffffffffffff21
:100fe000ffffffffffffffffffffffffffffffff11
:100ff000ffffffffffffffffffffffffffffffff01
:10100000021108023176ffffffffff023d58ffff8c
:10101000ffffff023e07ffffffffff023ebeffff95
:10102000ffffff0225e8ffffffffff023b1effff60
:10103000ffffffffffffffffffffff023e5effff1f
:10104000ffffff023de2ffffffffffffffffffff8c
:10105000ffffff02315cffffffffffffffffffff0e
:10106000ffffffffffffffffffffff023c95ffffba
:10107000ffffff023f30ffffffffff023d18ffffb2
:10108000ffffff023181ffffffffffffffffffffb9
:10109000ffffffbf2cce8700000000000000000013
:1010a0000000977582f575837f7400121123e4792f
:1010b000347802b800028004f709d8fce4900302f7
:1010c000785e79068002f0a3d8fcd9fa7a5f7b08b3
:1010d000901144786779028015e493a3ad82ae83c2
:1010e0008a828b83f0a3aa82ab838d828e83d8e918
:1010f000d9e77582d27583e8740212112375829242
:101100007583ef740212112375d00075813f75311c
:1011100000753202753303759f007593005392fe7c
:101120000210aec09ff59fe473d09f225392fed071
:1011300083d082c09fe493c0e0740193c0e0740246
:1011400093f59f220300000201020300000f00c379
:10115000a88ee8b19dcf7f5eb98b9f41efb055f46b
:1011600001fa00960064004b0032001e001400d605
:10117000be898e000106021213151429417671fff3
:10118000c1fbe84c90728be7b3518963ab23230218
:10119000841872aa612f3b51a8e53749fbc9ca0cd4
:1011a00018532cfd45e37102000040420f0000403f
:1011b0000000fffffffffaffffff0000800062005a
:1011c0000000ff7f0000050006000700000001008e
:1011d0000100000100010202030002000000000003
:1011e000020201000219000000093d0000e4ffffb7
:1011f000fffb349b5f8000008000100000000000b7
:101200000002000000ff00000000000805010000cf
:1012100000000001080500000000000007030000b6
:1012200000800001000080000004000000000007b2
:10123000090000000d00000104070000000000028a
:1012400001000002020000070a321b381b3e1b444b
:101250001b4a1b501bba1adc1cbe1c421d2a1d3027
:101260001d800004058000040606000000800004c4
:101270000280000404800002000b000000800006d1
:10128000004217d013761954143c1de21cf81b4879
:101290001db41acf0601ffffff0000000080ffff12
:1012a000ffff00000000c000000012112c09c40262
:1012b00012112c21c40212112c4cc40212112c99af
:1012c000c40212112cb1c40212112cd9c402121181
:1012d0002c29c50212112c59c50212112cbac502b3
:1012e00012112cd6c50212112cf2c50212112c17a4
:1012f000c60212112c70c60212112cffca02121162
:101300002cb3cb0212112c4efe0112112c66fe01e1
:1013100012112cd7fe0112112c1aff0112112c7b75
:10132000d70212112c0fd80212112c85d8021211db
:101330002c9bd80212112cc7d80212112cdcd80217
:1013400012112c35d90212112c56d90212112cb4bb
:10135000d90212112cf9d90212112c6ada021211d7
:101360002c95da0212112c19db0212112c48db0227
:1013700012112c67db0212112c7bdb0212112cc024
:10138000db0212112c0edc0212112cc1d20212113e
:101390002cddd20212112c13d30212112c21d302f4
:1013a00012112c52d30212112c7fd30212112c884d
:1013b000d30212112ccbd30212112c51d4021211d0
:1013c0002cbed40212112c0fd50212112c3ed502c4
:1013d00012112c92d50212112c64d60212112c6f0c
:1013e000d60212112ca2d60212112cd3d60212113f
:1013f0002c24d70212112c61d70212112c977f00d6
:1014000012112cb77f0012112ce07f0012112cd08a
:10141000ed0212112ce4ed0212112c3eee0212111b
:101420002ce6ff0112112c48ff0112112c75ff014f
:1014300012112cb1b00212112c1eb10212112c6427
:10144000b10212112c8db10212112c99b10212119c
:101450002cbcb10212112c00b20212112c47b202a4
:1014600012112ca5b20212112cf8b30212112ccebb
:10147000b40212112c75b50212112c9bb502121177
:101480002cdfb50212112c78b60212112c8db60287
:1014900012112ccbb60212112cebb60212112c4dec
:1014a000b70212112c60b70212112c70b702121180
:1014b0002c5fb80212112c6fb90212112ce1b90283
:1014c00012112c95ba0212112c00800112112ca6b7
:1014d000810112112c2a820112112c7e830112111a
:1014e0002ced830112112c27840112112cf184019f
:1014f00012112c72850112112c5a860112112c6bbb
:10150000870112112c5d880112112c97890112118b
:101510002cf0890112112c588a0112112cd58a0144
:1015200012112c768b0112112ce88b0112112c81d7
:101530008c0112112ce78c0112112c558d01121106
:101540002caa8d0112112c328e0112112ce88e0161
:1015500012112c9e8f0112112c60910112112c8ef0
:10156000930112112cd5930112112c5194011211d7
:101570002cba940112112c08950112112cb4960169
:1015800012112c54970112112ce0970112112c21e9
:10159000980112112ca2990112112c039a01121117
:1015a0002c179b0112112c0d9c0112112c3c9d013a
:1015b00012112c779e0112112c4fa00112112c0533
:1015c000a30112112cb6a30112112c62a401121155
:1015d0002c53a50112112cc6a50112112c32aa01ff
:1015e00012112cb4ac0112112c82ad0112112cd4a9
:1015f000af0112112cf4b00112112c1db201121105
:101600002c34b20112112c42df0212112c81df02a4
:1016100012112caedf0212112cdbdf0212112cc8ca
:10162000e00212112c9fe10212112c857e00121192
:101630002cde7e0012112c3f7f0012112c0e400078
:1016400012112c2c400012112c49400012112c6652
:10165000400012112c8e410012112c084200121170
:101660002c20440012112c86440012112c0f45002e
:1016700012112c4f450012112c83450012112cc55c
:10168000450012112c33460012112ce146001211b4
:101690002cef460012112c2a480012112c664a0029
:1016a00012112cec4a0012112c204b0012112c6448
:1016b0004c0012112c8d4d0012112cad4d00121149
:1016c0002cd44d0012112c104e0012112c434e0040
:1016d00012112c69520012112c91520012112cdda2
:1016e000520012112c57590012112ca3590012113b
:1016f0002ce4590012112c905a0012112c575b0047
:1017000012112ce45d0012112c515f0012112cc13a
:101710005f0012112cfe610012112c756200121173
:101720002cb9620012112c05630012112c5d6300ac
:1017300012112cfe630012112c48640012112ca30c
:10174000640012112cad640012112ce4650012111a
:101750002c8c660012112c12670012112c6d670080
:1017600012112c2d680012112cce680012112c6b56
:101770006a0012112c8c6a0012112cc66c00121116
:101780002cf86d0012112c9d6e0012112cfe6e00b3
:1017900012112cd76f0012112cd8700012112cd0fe
:1017a000710012112ce1710012112ceb7100121159
:1017b0002cf0730012112c4d740012112c7c74004b
:1017c00012112ce3740012112c12750012112ca5a9
:1017d000750012112c39760012112c9a7600121114
:1017e0002c10770012112c46770012112c7b7700f9
:1017f00012112c9a770012112cf3770012112c0d74
:10180000780012112c3a780012112c48780012112d
:101810002c71780012112ce0780012112cc6e9020c
:1018200012112c82ea0212112ca4ea0212112cefde
:10183000ea0212112c32eb0212112c74ef02121177
:101840002c42e30112112c6ee30112112cb6e301bc
:1018500012112c12e40112112c73e40112112c3814
:10186000e50112112c53e60112112ce5e7011211ca
:101870002c8eeb0112112c6ced0112112c6ef0016b
:1018800012112cb2f00112112c9ef10112112ca395
:10189000f20112112c1df40112112c92f4011211fb
:1018a0002cbcf50112112c14dc0212112c40dc02ac
:1018b00012112c57dc0212112c5bdc0212112cf5d8
:1018c000dc0212112ca9de0212112c00800212116e
:1018d0002c66800212112c83800212112cb080021f
:1018e00012112cdc800212112c10810212112c5fbb
:1018f000810212112c8e810212112cf1810212111f
:101900002c4e820212112c1c830212112c9683027f
:1019100012112c37850212112cef850212112c8224
:10192000880212112c048c0212112c488c02121104
:101930002ca18c0212112c578d0212112c288f020f
:1019400012112cb88f0212112cf98f0212112c4f88
:10195000900212112ca7900212112ccc900212119d
:101960002c1f910212112c60910212112cdb920299
:1019700012112cfc930212112c0d940212112c89bd
:10198000950212112c9f950212112cc7950212116b
:101990002c7e960212112c93960212112cc59602df
:1019a00012112ccb970212112c62980212112c9852
:1019b000980212112ce0980212112cd499021211e3
:1019c0002c2f9a0212112c169b0212112c899b02a9
:1019d00012112ccd9b0212112cdf9c0212112c47ec
:1019e0009f0212112c779f0212112cd99f02121103
:1019f0002c42a00212112c84eb0212112c91eb024a
:101a000012112cb4eb0212112cf7ec0212112c045f
:101a1000ed0212112c32ed0212112ca679001211d6
:101a20002cc5790012112c907a0012112c367c00f2
:101a300012112c947c0012112ce97d0012112c52f1
:101a40007e0012112c3bed0212112c69ed021211d5
:101a50002c93ed0212112ce5e10212112c6ee20220
:101a600012112ca0e20212112c10e30212112cb25e
:101a7000e30212112ce0e30212112c10ef021211fa
:101a80002c1cef0212112c3fb90112112c95b90137
:101a900012112c5eba0112112c79bc0112112c17f3
:101aa000be0112112cddbe0112112cedbf0112116d
:101ab0002c8dc00112112c0ac10112112cc0c101c0
:101ac00012112c28c40112112ca8c40112112c0cc3
:101ad000c50112112cb6c50112112cb6c601121186
:101ae0002cbbc70112112c62cc0112112cb3ce01f8
:101af00012112c6ad10112112c1cd40112112c1ab2
:101b0000d70112112c0dd90112112cafdb011211ca
:101b10002c5de00112112cb3e10112112c41e20104
:101b200012112ccbe20112112c1fe30112112c1ef9
:101b3000e60212112c9ce60212112cb2e6021211de
:101b40002cc8e60212112cdee60212112cffe6026e
:101b500012112c15e70212112c2be70212112cdea8
:101b6000f50112112c6ef60112112cf1f601121171
:101b70002c17f70112112ce3f70112112c99f8011f
:101b800012112cd9f80112112c5ff90112112cd16c
:101b9000f90112112c33fa0112112cb0fa011211b1
:101ba0002cc3fa0112112cd7fa0112112c0cfb01d3
:101bb00012112c3efb0112112c70fb0112112cb6dc
:101bc000fb0112112cf6fb0112112c4afc0112111f
:101bd0002c59fc0112112c62fc0112112cf5fc0194
:101be00012112c2cfe0112112ccfcb0212112cde63
:101bf000cb0212112cdccc0212112ceecc021211f1
:101c00002c8cce0212112c41cf0212112caacf0221
:101c100012112cc3cf0212112cd9cf0212112c1386
:101c2000d00212112c56d00212112ca0d002121187
:101c30002ce9d00212112cb4d10212112cc2d10203
:101c400012112ccad10212112cf2d10212112c0b3a
:101c5000d20212112c30d20212112c43d2021211d4
:101c60002c63d20212112c73d20212112c85d202d3
:101c700012112c93d20212112ca1d20212112cb1ea
:101c8000d20212112cfce70212112c29e8021211c7
:101c90002c53a00212112c77a00212112c8ca0023e
:101ca00012112c2aa10212112c50a10212112c8304
:101cb000a10212112cf0ad0212112c22ae0212114f
:101cc0002c29b00212112c31e40212112c93e402df
:101cd00012112cb7e40212112c06e50212112c5a33
:101ce000e50212112cfbe50212112c14e60212116e
:101cf0002ccbbb0212112ce8bb0212112cf8bc0237
:101d000012112c57bd0212112cffbd0212112c7e94
:101d1000bf0212112c2ac00212112c78c00212111b
:101d20002cddc00212112c43c10212112c95c102ec
:101d300012112c21c20212112c9cc20212112c75fc
:101d4000c30212112ca0ef0212112ca4ef021211e7
:101d50002ca6ef0212112cacef0212112ca31000d2
:101d600012112c50ee0212112cbdee0212112c4554
:101d7000ef02e066701008a3e066700a08a3e06650
:101d8000700408a3e06622c3e7960809e7960809ed
:101d9000e7960809e796a2d265d03322c3e09608f9
:101da000a3e09608a3e09608a3e096a2d265d033fc
:101db00022c021c3e096f52108a3e096422108a3a2
:101dc000e096422108a3e0964221a2d265d033e5f5
:101dd000217001d3d02122c3e7960809e7960809ac
:101de000e7960809e79622c3e09608a3e09608a3c1
:101df000e09608a3e09622c021c3e096f52108a34f
:101e0000e096422108a3e096422108a3e0964521ee
:101e10007001d3d02122080808eac0e0ebc0e086b8
:101e2000f0e7a4fa180986f0e7a42afa180986f060
:101e3000e7a42afa180986f0e7a42afa1986f0e737
:101e4000a4fbe5f02afa190886f0e7a42bfbe5f0dd
:101e50003afa190886f0e7a42bfbe5f03afa1818cd
:101e60000986f0e7a4c5f02bfbe43afa1908e7c5a8
:101e7000f0c6a426f6e5f03bfbe43afa1886f0e754
:101e8000a4f6e5f00826f6e43b08f6e43a08f6d0b6
:101e9000e0fbd0e0fa22e4cfc0e0e4cec0e0e4cd45
:101ea000c0e0e4ccc0e075f020e626f608e633f6a4
:101eb00008e633f608e633f6181818ec33fced3371
:101ec000fdee33feef33ffc3ec9709ed9709ee9774
:101ed00009ef97191919400fffec97fc09ed97fdd1
:101ee00009ee97fe191906d5f0bfecf709edf709d1
:101ef000eef709eff7191919d0e0fcd0e0fdd0e0ba
:101f0000fed0e0ff22121f6d181818121e96121f25
:101f10005c19191922121f5c191919080808e6180a
:101f2000181820e7e0121e96121f6d1818182209c3
:101f30000909e719191920e7dc080808e618181834
:101f400020e703021e96121f6d181818121e961213
:101f50001f6d181818121f5c19191922e4c397f77e
:101f600009e497f709e497f709e497f722e4c396a1
:101f7000f608e496f608e496f608e496f62260176a
:101f8000080808c6a2e713c618c613c618c613c6a3
:101f900018c613c6d5e0e9226016080808c6c313a0
:101fa000c618c613c618c613c618c613c6d5e0eaa7
:101fb000227009080808226016181818c6c333c60c
:101fc00008c633c608c633c608c633c6d5e0ea22fb
:101fd000e627f60809e637f60809e637f60809e6bf
:101fe00037f622e026f608a3e036f608a3e036f638
:101ff00008a3e036f622e026f008a3e036f008a3b6
:10200000e036f008a3e036f022c3e697f60809e6ca
:1020100097f60809e697f60809e697f622c3e0c6a0
:1020200096f608a3e0c696f608a3e0c696f608a3bf
:10203000e0c696f622e056f608a3e056f608a3e0be
:1020400056f608a3e056f622e647f60809e647f6f4
:102050000809e647f60809e647f622e046f608a32f
:10206000e046f608a3e046f608a3e046f622e0467e
:10207000f008a3e046f008a3e046f008a3e046f02d
:1020800022e066f608a3e066f608a3e066f608a379
:10209000e066f622e0f608a3e0f608a3e0f608a35f
:1020a000e0f622e6f008a3e6f008a3e6f008a3e6cf
:1020b000f022e0faa3e0fba3e0fca3e0fd22eaf0bb
:1020c000a3ebf0a3ecf0a3edf022e0fca3e0fda372
:1020d000e0fea3e0ff22ecf0a3edf0a3eef0a3ef0f
:1020e000f022e0f8a3e0f9a3e0faa3e0fb22e8f095
:1020f000a3e9f0a3eaf0a3ebf022cac0e0e6f0a364
:1021000008dafad0e0fa22cac0e0e0a30592f0a310
:102110000592daf6d0e0ca225392fefae9fb792161
:10212000e7f0a309dafae8f0a3ebf9f0a3ecf0a3e7
:10213000edf0a3eef0a3eff0a3e520f0a3e5f0f0bf
:10214000a3e592f0a3e584f0a3e585f0a3e581f093
:10215000a3e531f0a3e532f0a3e533f0a3d0e0fa34
:10216000d0e0f0a3caf0eac0e0e0c0e07a007b0073
:10217000225392fecac0e0ebc0e07921e0f7a30948
:10218000dafae0f8a3e0f9a3e0fca3e0fda3e0fea7
:10219000a3e0ffa3e0f520a3e0f5f0a3e0c0e0a3f7
:1021a000e0f584a3e0f585a3d0e0f592d0e0fbd084
:1021b000e0fae0f581a3e0f531a3e0f532a3e0f524
:1021c00033a3d0e0d0e0e0c0e0a3e0c0e0ea4b7091
:1021d000027a0122b90010bb0008e88af084f8aa4c
:1021e000f022e4fbc8fa22eb70227b10c833c8c986
:1021f00033c9335007c39ac3dbf280069a50012ad1
:10220000dbeac833f4c8c933f4c9fa2275f008e42c
:10221000c833c8c933c933c99ac99b5004c92ac92c
:102220003bd5f0ecfbc833f4c8e4c9fa22600d08d2
:10223000c6a2e713c618c613c6d5e0f322600c0881
:10224000c6c313c618c613c6d5e0f42270042260b4
:102250000d18c6c333c608c633c6d5e0f418222508
:102260003210af08f532400c15338008f5324002c9
:102270001533d2af2200c0d0253210af08f532504e
:102280000c05338008f53250020533d2afd0d0228e
:102290002532f58210af08f532400c15338008f571
:1022a0003240021533d2af85338322c5822532c531
:1022b00082c583353310af07f5338582328007f549
:1022c00033858232d2afc583222532f582e435339d
:1022d000f583222532f584e43533f585222532f85d
:1022e000e43533f9222532fae43533fb222532fc7a
:1022f000e43533fd22e4735392fe2532c582c0e0fb
:10230000e53334ffc583c0e0e532c3958224f8107d
:10231000af08858333858232800885833385823296
:10232000d2afcef0a3e520f0a37821e608f0a3de3b
:10233000faeff0a3e58124faf8e608f0a3e608f046
:10234000a3e608f0a30808e608f0a3e608f0a31542
:10235000811581d0e0fed0e0f8158115811581e866
:10236000c0e0eec0e0225392fe2532c582c0e0e517
:102370003334ffc583c0e0e532c3958224f910af42
:10238000088583338582328008858333858232d203
:10239000afcef0a3e520f0a37821e608f0a3defaa3
:1023a000eff0a3e58124fbf8e608f0a3e608f0a32c
:1023b0000808e608f0a3e608f0a315811581d0e02f
:1023c000fed0e0f815811581e8c0e0eec0e02253b0
:1023d00092fe853383853282e0a3fee0a3f5207868
:1023e00021e0a3f608dffae0a3ffe0a3c0e0e0a34a
:1023f000c0e0e0a3c0e0e0a3c0e0e0a3c0e010af15
:10240000088582328583338008858232858333d282
:10241000afd083d0825392fe0211295392fe8533ae
:1024200083853282e0a3fee0a3f5207821e0a3f6c5
:1024300008dffae0a3ffe0a3c0e0e0a3c0e0e0a370
:10244000c0e0e0a3c0e010af08858232858333800e
:1024500008858232858333d2afd083d0825392fef7
:1024600022c0925392fec0d02532c582c0e0e5332f
:1024700034ffc583c0e0e532c3958224f210af0873
:102480008583338582328008858333858232d2af5b
:10249000c8f0a3e9f0a3eaf0a3ebf0a37921e709e0
:1024a000f0a3d8faecf0a3edf0a3eef0a3eff0a3c5
:1024b000d0e0f0a3d0e0f0a3d0e0f0a3e520f0a3bb
:1024c000e5f0f0a3d0e0f0225392fe85338385320d
:1024d00082e0c0e0a3e0f9a3e0faa3e0fba3782147
:1024e000e0f608a3dffae0fca3e0fda3e0fea3e032
:1024f000ffa3e0c0e0a3e0c0e0a3e0f5d0a3e0f5d7
:1025000020a3e0a3f5f0e0a3c0e010af088583337b
:102510008582328008858333858232d2afd0e0d085
:1025200082d083f592d0e0f8d0e032e584f0a3e5e4
:1025300085f022e0a3f584e0f5852274048006741a
:102540000280027401c0e0f404122290d0e0122054
:10255000fa2274048006740280027401c0e0f4045c
:10256000122290d0e012210722d083d082c5f0e45d
:1025700093a3c5f0c395f0f5f0e493a3c395f040a1
:1025800005e5f0048001e475f002a42582f582e5fa
:10259000f03583f583e493a3c0e0e493c0e022d058
:1025a00083d082e9c0e0e493a3c386f0c5f095f040
:1025b000f908e493a386f0c5f095f0700be493a3bb
:1025c000c3994005e9048002a3e475f002a42582c2
:1025d000f582e5f03583f583d0e0f9e493a3c0e01c
:1025e000e493c0e022ffffffc0e0c0d075d008c078
:1025f00092c082c083c0f0759800e5a8f8c2af53be
:1026000092fe9004e1e0d2e1f0753400e8a2e7e444
:1026100033fee8a2e792af1212f2d0f0d083d0825c
:10262000d092d0d0d0e032c082c0835392fe9004ca
:10263000ade4f0a3f0a3f0a3f0d083d0822274f72e
:1026400012236679001219f49003ef123854eac38a
:1026500098f8eb99f9e82404fee439ff9003fc12a2
:102660002fb9c3ee9cef9d402c9003fa122fb99026
:1026700003fee02af8a3e03bf9e8c39cf8e99df9e2
:102680009003ef122fcca3ecf0a3edf09003fcec41
:10269000f0a3ed80239003ef122b529003fc122c39
:1026a000b79003fc1238549003f1122fcc9003f82a
:1026b000e070047402800114f07aed7b0312386735
:1026c000800ff08532828533831225337402122203
:1026d000757f0202241b74f7122366e9fe9003f94a
:1026e000e0f8ee600924fe601d14601a8032900349
:1026f000f6e0a2e35009e860279003f9148020c2b5
:10270000e2f0d2e380199003f6e0a2e2500c7408e4
:1027100068600d9003f9e0048005c2e3f0d2e2f0b6
:102720009003f7e070089003f574fff08049906023
:102730000a1228de49703d90618fe0c0e09003f9f5
:10274000e0f87408c398f8d0e0b800028004c3131e
:10275000d8fcf52174ff6521700990600ae4f0a3ac
:10276000048010e5212401f8e43400f990600ae8bf
:10277000f0a3e9f012263e0226d174f7122366e98f
:10278000fe24fc600624fe602a800d9004c7e064ed
:1027900001705d12170c805890041ae064017013e8
:1027a000900414e4f0ee700b7b091230bdfa79004e
:1027b000123bcd900414e0700890041274fff08076
:1027c0002f90618fe0ff79001219f48b22a92290db
:1027d0000416e02af8a3e039f9740f5ffae82af842
:1027e000e439f990040c122fcc7a0a7b0412386772
:1027f0000226d174f712236674fe12229012252b42
:102800009004641228de2412fae439fb90605ce044
:1028100060088a828b83e0d2e1f0e82430fce4395e
:10282000fde82432f584e439f58590605ae07006bd
:1028300090605ee0603a8a828b83e0a2e1401dd224
:10284000e1f0e82422f582e439f583122b481222c4
:102850004c8c828d83e521f0a3e522f0e40592f013
:10286000a3f079008532828533835392fe0226c914
:10287000e8241ef582e439f58312384b858482857d
:102880008583e02ef0a3e03ff08c828d830592e0fb
:10289000fca3e0fdc30592e09ca3e09d50c48882a8
:1028a0008983a3a3a3a3a3a3a3a3a38582848583ce
:1028b000858a828b83e0a2e1500474088002743e12
:1028c0000592f07b02888289830592a3a3a3a3a328
:1028d000a3a3a3e0fa7900123bcd790180861238d8
:1028e00058e82274f512236674fe12229012252bea
:1028f000122f99f584e43ff5850592e0fc70030200
:102900002b43ee242ef582e43ff5830592123854d2
:102910008e828f83a3a3a3a3a3a3a3a385822385ce
:1029200083248e828f83a3a3a3a3a3a3a3a3a3aa79
:1029300082ab83ee2434123607687003a3e069701b
:102940002d74026c7003022adc74016c700302297e
:10295000dc740c6c7003022b43740d6c7003022b3f
:102960004374096c60258a828b8374228059ec142d
:10297000606a147003022adc24fa601c14600c14d0
:102980006046147003022b1f022b43906008e0a2e4
:10299000e65003022b438030ee2439f582e43ff504
:1029a00083801388828983a3a3a3e0640370030256
:1029b0002b43888289831228de4970e78a828b83c1
:1029c000e0641370037416f07b02852382852483f0
:1029d000e0fa7900123bcd7901022b45ee24551225
:1029e00032f4ee244cfce43ffdea24fff521eb3405
:1029f000fff522e521687003e522697075ee244d2c
:102a0000122bdb8e828f83122b508c828d83e025dc
:102a1000e0f8e433f9e82403f85001098e828f834b
:102a2000a3a3a3a3122fcd900495e0a2e050098e9a
:102a3000828f83a3a3122fc89004b6e4f0a3f0a35f
:102a4000f0a37402f0900495e0a2e04003022b434f
:102a5000906062e4f08c828d83e0f875f0e2a4c8a7
:102a6000aaf075f004a42af9e8122f8e122fcc02d6
:102a70002b43ea687002eb696003022b437521095e
:102a8000752200782112253fee241bfae43ffb1249
:102a90001d667402122275900495e0a2e05007eec4
:102aa000faeffb123300e40592f0ee2422f582e403
:102ab0003ff5830592122b4812224cee2430f5820a
:102ac000e43ff583e521f0a3e522f0ee2432f58220
:102ad000e43ff583e4f0a3f07b08805ae824010882
:102ae000500109ee245c123607687003a3e0697098
:102af00052752105752200782112253fee2457fcde
:102b0000e43ffdee2424fae43ffb121d667402123a
:102b10002275eefaeffb121706e40592f08024ee20
:102b2000faeffb1212f8e40592f00592900495e09a
:102b3000a2e0500f7b07852382852483e0fa790089
:102b4000123bcd79000230cf122ce374037821229e
:102b5000a3a3e028f0a3e039f02274f812236674ee
:102b6000fe12229012252b122bd01228e3e970506e
:102b70001227f3e9704ae584242ef582e43585f5c1
:102b800083e02401f0a3e03400f0906008e0c0e0ae
:102b9000e5842436f582e43585f583d0e0f0e584dc
:102ba000241ef582e43585122bdf0592a3a3e028cd
:102bb000f0a3e039f005929004641232fa123867fb
:102bc0008532828533831225337402122275804a3e
:102bd000900464e0f584a3e0f58522f582e43ff5f6
:102be00083122be522e0f8a3e0f9e828f8e933f9ad
:102bf00022123627f582e43ff58312360f1217961c
:102c0000ee241ef582e43ff583122fa524fcf8e99b
:102c100034fff98e828f83122fc87f0102241b7428
:102c2000f712236674fe12229012252b9004d41200
:102c300038619004d4e0f8a3e0f5838882a3a3acc4
:102c400082ad839004bbc8241ef584e438f5850565
:102c500092e0f8a3e0f9e828f8e933f9900497e066
:102c6000f521a3e0f522122ccd0592e028f8a3e08f
:102c700039f98c828d83122fcc9004b6122cc08c23
:102c8000828d83122cb79004b8122cc07a207b4e10
:102c90001221d4882189228c828d83e09521f0a392
:102ca000e09522f09004bd122cc0e828f8e933f931
:102cb000e8122f860226c2c3e098f0a3e099f02222
:102cc000123858900497122ce3122ccd22e885215b
:102cd000f0a4c8aaf08522f0a42afa8521f0e9a47c
:102ce0002af922e0f521a3e0f5222274f3122366eb
:102cf00074fe12229012252b122f99f523e43ff532
:102d000024852382f583e0640c7011906008e05400
:102d1000036009852382852483740df0ee2412f567
:102d200084e43ff5850592e0a2e35008c2e3f00594
:102d300092022f6a8e828f830592a3a385822185ba
:102d40008322906062e0600e79101219f48521826e
:102d50008522831238611228e3e96003022f73127f
:102d600027f3e96003022f73906008e0c0e0ee24cf
:102d700036f582e43ff583d0e0f09061d5e0f8903d
:102d800061d7e06805926005e0d2e28003e0c2e22c
:102d9000f005929004b81232fa906062e06016ea90
:102da00024c0faeb3437fb123ba29004bd122fa5ce
:102db000122f868012123b8c9004bd122be1906082
:102dc00064e028f0a3e039122fbf24fff0a3e03421
:102dd000fff0ee242b1236079004baf0ee242012f6
:102de00032f4ee242ef525e43ff526ee245cf5843e
:102df000e43ff585ea4b7003022ea8900499e0f8b1
:102e0000852382852483e0fc702b122faa600302a5
:102e10002ea8ee2439122fad6003022ea8e8a2e0fe
:102e20005003022ea8ea2401f8e43bf9900497e845
:102e3000f0a3e9805d740d6c706e122faa7069eebc
:102e40002439122fad7061e8a2e0405c8584828550
:102e500085838525848526850592e0f8a3e0f9051c
:102e600092e0c398f8a3e099f9e824ff18e934ff49
:102e7000f9ea24010a50010bc398eb99900497508a
:102e800006eaf0a3eb800b122fcc852382852483e6
:102e90007402122fbff8a3e0f99004bb122fcceefe
:102ea000faeffb122c1f805a9004977401f0a3e4f0
:102eb000f0ee241e122bdb852182852283122b52f9
:102ec0009004b6123854852182852283122cb7854e
:102ed0002382852483e0640c7028852582852683df
:102ee000e02402f8a3e03400f90592e0faa3e0fb45
:102ef000c3e89ae99b400b852382852483740205ed
:102f000092f08e828f835392fea3a3a3a3a3a385e3
:102f100082848583859060641238547a717b0212b2
:102f200021d48922e82405f8e43522f985848285b4
:102f30008583122fcc8e828f83a3a3a3a31232fa90
:102f4000858482858583e0f8c3ea98eb99a2d265ef
:102f5000d0335007ea0592f0a3ebf05392fe1238fb
:102f600051852582852683122b529004641232faf1
:102f70001238678532828533831225337402122218
:102f8000757f0602241b122f8ee8f0a3e92224eaa3
:102f9000f8e93402f990606422900464e0fea3e052
:102fa000ffee240a22122be5e822ee2432f582e419
:102fb0003ff583122fb9ec4d22e0fca3e0fd22f097
:102fc000852182852283e022a3a3a3a3e8f0a3e9bd
:102fd000f02274f512236674fe12229012252b80c3
:102fe00031c2e51230b8c0e09004c5e012309dd087
:102ff000e0f09004c5e004f0a3e004f0a3e004f0e6
:103000009004c9e0700c7401f07b007a0079001222
:103010003bcd90605ae0f521906002e0a2e05004c0
:103020007800800590605de0f89004c6e0fae52144
:1030300028f8e43400f9e86a7001e960589004c5a2
:10304000e0f52374012523547ff521e52312309dfb
:10305000e0f808089004c5e028f074802521f58286
:10306000e43460f5830592900464e0f8a3e0c8249a
:1030700008f584e438f585e0a2e70592e040030214
:103080002fe1d2e5f01230af24db1230b8fa123063
:10309000af4a022ff1853282853383803b1230a103
:1030a00022547ff8748028f582e43460f5832290fe
:1030b00004c5e01230a1e022f01230bd2290046479
:1030c000e0f8a3e0c82408f582e438f583e022851f
:1030d00032828533835392fe122533740212227595
:1030e0007f0402241b74f512236674fe12229012d0
:1030f000252b89210592900464e0f582a3e0f583f5
:10310000858284858385a3a3a3a3a3a3a3a3e0a20d
:10311000e740469004c8e0f8906054e0c398f52278
:103120009004c8e02522f0ae82af838011ee2439ee
:10313000fae43ffb121628ea4b600312183285228c
:103140002374ff2523f5220470e3e521a2e640095c
:103150007900eefaeffb1217960230cfc0e074f15f
:103160001224618535c675a70075a1007950121a21
:10317000127f010224c8c0d075d01875bf00d0d00e
:1031800032c0e0c0d075d018c092c082c083c0f0f9
:103190008535c6e591fe759b00f4f5915392fe903e
:1031a0006002e0a2e050047800800278087900e82c
:1031b00044015e6003122fd2eea2e55004f91230f2
:1031c000e5eea2e75029e5a8f8c2af9004e1e0d20d
:1031d000e0f0753400e8a2e7e433f9e8a2e792af43
:1031e000e594a2e24009759403e594a2e250faee58
:1031f000a2e640030232c1906061e0f99004c6e4a7
:10320000f09004c8f09004641232fa8a828b83a38f
:10321000a3a3a3a3a3a3a3e02410601224fc60092a
:1032200024fc700f1226d6806612277a806112164f
:103230004c805c900494e0600514601480239060de
:1032400060e06480601be0c0e01232ded0e08010fd
:10325000906058e0f890605ce028f81232dee028d8
:10326000f0906060e064806016e0c0e0900464e08c
:10327000f8a3e0c82413f582e438f583d0e0f09099
:103280000495e0a2e05005122ceb8003122b5a901b
:103290006059e0f89004ade028f0906058e0f890b4
:1032a00004aee028f090605a1232d590605e12327f
:1032b000d590605ce0f89004b0e028f012163a80f7
:1032c00004a2e75003123952d0f0d083d082d092ba
:1032d000d0d0d0e032e0f89004afe028f022ea2429
:1032e0002cf582e43bf583e0fa746f2af582e4342e
:1032f00004f58322f582e43ff583e0faa3e0fb22a4
:10330000c082c0835392fe9004b8e4f0a3f090040e
:10331000b6f0a3f01216529004bdeaf0a3eb022619
:103320003874f712236674fe12229012252b900433
:1033300064122fb9123851ec2429f582e43df5834b
:10334000ec242bfae43dfb8a848b85740168497078
:1033500012e0f80592e028fac39425402974db2a8c
:10336000fa8023e0f521e88521f0a4f8aaf0852170
:10337000f0e9a42af90592e0fae82af8e439f97aa2
:10338000257b001221d4eaf0ea131313541ff8ec42
:1033900028f8e43df9e82424f582e439f583059220
:1033a000e0c0e074075af8d0e0b800028004c3130c
:1033b000d8fca2e040288005e8cac39afaec24e5cc
:1033c000f582e43df583e0f8eac39850ebec2af887
:1033d000e43df9e824c0f582e439f583e0faec2411
:1033e0002cf582e43df583ea0226c274f6122366c8
:1033f00074fe12229012252b90041be09060026054
:1034000004740e8002740ff0900415e0906001f0d7
:1034100090088a1220e29061951220ee1217a29075
:10342000041ae0f521740165219004137040e05402
:1034300002f97a1c7b04121670900413e0a2e0508b
:10344000097aa17b0475214080077a9b7b04752152
:1034500000a2e150047e8080027e0075230678235e
:103460001225437c1c7d04e5214e44018068e0a2c6
:10347000e050087aa17b04784080067a9b7b047830
:1034800000059290044112255a7c227d04748e25f9
:1034900021f582e43408f5830592e048f9121676a6
:1034a000740112227590041ae0f8600574026870c5
:1034b0002e900413e0a2e050087aa17b04784080ab
:1034c000067a9b7b047800059290046112255a7c51
:1034d000427d04e84404f9121676740112227590b4
:1034e0000413e0a2e0e433f912166a759100900427
:1034f0001be0906182600474c8800274c0f0853261
:103500008285338312253374021222757f030224cd
:103510001bc082c0835392fe906002740ff0900330
:10352000f8e004f064037002e4f0e0242590600009
:10353000f090088a1220e29061951220ee9003f636
:10354000e05420f912166a1217a29003f6e0a2e1e5
:103550005004d2f08002c2f0a2f0e43390600cf08c
:103560009003f6e0a2e1503575d90da2e55004783c
:103570004080027800e84403f5d9e0a2e550067add
:10358000a17b0480047a9b7b0479061216407406a2
:1035900075d9001470fae5e170fc75e1957591003c
:1035a00090618274c102263874f812236674fe1288
:1035b000229012252b12366a1217a21236601220a0
:1035c000e29061951220ee123679123321123627dd
:1035d000f584e43ff58585848285858312360f1254
:1035e0001796ee2412123607a2e250180592e0f860
:1035f000a3e0f58388820592a3a3e02402f89061fa
:10360000d5e028f0022bc0f582e43ff583e02212da
:103610003858ee2437f582e43ff583e8f0a3e9f06b
:103620007900eefaeffb22ee242c123607906000b0
:10363000f07591009004d3e0906182f0ee2439227d
:1036400074f812236612366a1217a212366012201c
:10365000e29061951220ee123679123321022bf19d
:10366000ee2414f582e43ff58322900464e0fea387
:10367000e0ff906002740ff022ee243612360790bd
:103680006008f0ee2418123607906005f0ee241959
:10369000123607906006f0ee241a12360790600783
:1036a000f02274f812236612366a1217a2123660dc
:1036b0001220e29061951220ee123679022bf174fd
:1036c000f112236674fe12229012252b75210075cb
:1036d00022007c6b7d04801f8882898312384b8c8a
:1036e000828d83eef0a3eff088828983e521f0a339
:1036f000e522f0882189228c828d8312384bee4f8f
:1037000070378c828d831238618a828b83e4f0a3b8
:10371000f0aa21ab228532828533831225337402cd
:103720001222757f0802241be5232527f8e524359e
:1037300028f98a828b83122b50eef8eff988828960
:1037400083a3a38a848b850592a3a3e0f523a3e03a
:10375000f5240592e0c39523f523a3e09524f524f1
:103760008a828b83a3a3a3a3a3a3e0f525a3e0f5fb
:1037700026c3e5239525e5249526a2d265d03340be
:103780003e8a828b83122fcc8a828b83a3a3a3a32e
:10379000858284858385123854c3e52398e524996e
:1037a000a2d265d033500d858482858583e523f0d0
:1037b000a3e524f08c828d83eaf0a3eb0237108816
:1037c000828983a3a3a3a3a3a3e0f527a3e0f528fd
:1037d000c3e49527f525e49528f526c3e52595232b
:1037e000e5269524a2d265d03350288a828b83a304
:1037f000a3a3a3a3a3a3a3e0a2e7500302372888af
:10380000828983a3a3a3a3a3a3a3a3e0a2e7500356
:103810000236d888828983a3a3a3a3858284858363
:1038200085c3e49523fce49524fd12384bc3ec9e3c
:10383000ed9fa2d265d033500b858482858583ecc1
:10384000f0a3edf0e8fce9fd0236f7e0fea3e0ffaf
:103850002290049712385822e0f8a3e0f92290034e
:10386000efeaf0a3ebf02274f712236674fe122243
:103870009012252bea4b6031a2afe433fec2af12a7
:1038800036bf8a828b838016aa82ab838582848529
:1038900083850592e0f582a3e0f5831236bfe582c9
:1038a000458370e4eea2e092af0226c374f81223bf
:1038b0006674fe12229012252beaf8ebf9e84970a3
:1038c0000302394da2afe433f521c2af90046be09f
:1038d000faa3e0ca2408f582e43af583e06015a271
:1038e000e7501188828983a3a3a3a3a3a3a3a3e082
:1038f000a2e7405390046412384beefaeffb8a8241
:103900008b83a3a3888489850592a3a3e0fca3e00d
:10391000fd0592e0c39cfca3e09dfdc3ec9405ed86
:10392000123af84022eefceffdec2412f582e43d61
:10393000f583e0d2e4f08882898312386190046bc9
:10394000122fcc79018008e521a2e092af79000224
:103950002bc074f512236674fe12229012252b7967
:10396000001219f48a238b247977121a129061b10c
:10397000e4f0e070f87403f0e0640370f890046b16
:10398000123854900464122fcce8497012123b0094
:10399000e594a2e24003023af0759400023af088fe
:1039a0008289831232fa90046b123861888289838b
:1039b000a3a3122ce388828983a3a3a3a3e02521d8
:1039c000f8a3e03522f9e824fdfee934ffff90601a
:1039d000607480f0e521c39523e5229524f9e52361
:1039e0002401fae43524fb122bd08584828585835b
:1039f000a3a3a3a3a3a3a3a3e02410604d24fc606e
:103a00000624fc600880631233eb023a9390046b47
:103a1000122bd3e5844585602c0592a3a3a3a3a311
:103a2000a3a3a3e0a2e7401d123af650188a218b07
:103a300022c3ea9eeb9f4008ea2401fee43522ff00
:103a4000059212385e1235118049123af650168ae4
:103a5000218b22c3ea9eeb9f4008ea2401fee43555
:103a600022ff12385e1217a88029900495e0a2e088
:103a700050051235a8801ca985e5842412f582e43e
:103a800039f583e0a2e45008c2e4f01236a28003c4
:103a9000123640aa21ab227930121a06eefaeffb59
:103aa0007940121a067954121a1279001219f48afe
:103ab000238b24e521c39523f8e5229524f9c3e857
:103ac0009401123af7500c1217bae5e170fc75e157
:103ad00021801d900367e0a2e04012aa21ab2212d0
:103ae0001a009004b21220be123b0080031217bad3
:103af0001218c2023095c3e99400a2d265d03322d5
:103b0000e5a8f8c2af9004e1e0c2e0f0753400e847
:103b1000a2e7a2e792af2200853487c2af22c0e0bd
:103b2000c0d075d018c092c082c083c0f074fc129f
:103b3000225f5392fe9004e2e0601c121664900330
:103b400067e054117008e5c654384487f5c6900400
:103b5000e2e4f0c2c78020c2c7aa32ab331217b466
:103b6000e9640170129004e27401f08532828533b9
:103b7000831220b21218b67534007404122275d064
:103b8000f0d083d082d092d0d0d0e03275c3007410
:103b900020c39afa744e9bfbeaf5a2ebf5a353926d
:103ba000fe22c02175c301e5a2f521e5a375c3007e
:103bb000f9e5212420f8e9344ef9e8c39af8e99ba5
:103bc000f9e8f5a2e9f5a3d0215392fe2274f5128b
:103bd0002366e9feeaff8b21753400a2afe433f5da
:103be00022c2af900585e0f52474012524540ff519
:103bf00023900584e0652370057900121a6ce52492
:103c000075f003a4f8a9f0741228f8740539f9e8de
:103c10002442f582e439f583eef0e82443f582e4aa
:103c200039f583eff0e82444f582e439f583e521a2
:103c3000f0e523900585f0e522a2e092af7f040233
:103c4000241bc082c08374fc12225fe5a8f8c2afb7
:103c5000e5958532828533835392fef0e596c0e088
:103c600074011222c9d0e0f0e597c0e0740212227c
:103c7000c9d0e0f0e8a2e7a2e792af74031222c92c
:103c8000e4f08532828533831220b27404122275e7
:103c9000d083d08222c0e0c0d075d018c092c0823c
:103ca000c083c0f0121be6123c429006191220bedf
:103cb000e58955ab90061df0e580900620f0900652
:103cc0001de0f4f5899062d0e0f8a2e1502790065b
:103cd0001de0a2e5501f53abdf9062d0e0a2e0e40c
:103ce00033900623f090061de0c2e5f07b307a00a9
:103cf0007906123bcd90061de0600e7b007a0079bc
:103d000006123bcd7900121bf2c2c5d0f0d083d091
:103d100082d092d0d0d0e032c0e0c0d075d008c000
:103d200092c082c083c0f0121be6123c429006197a
:103d30001220bee58a558df890061ef0e59090069b
:103d400021f0e8f4f58a7b017a007906123bcd79ff
:103d500001121bf2c2eb80b3c0e074f01224619038
:103d600061a9e06017c2afe589f8e5abf975ab0072
:103d7000e4f090624bf0888989abd2af900628e0de
:103d8000640f7012e5c7f8900368e0f5c790ff1c58
:103d9000e0f4f5ae88c7e5bbf8e5baf521e8fb909d
:103da0000628e025e0f8e433f9742928f582740642
:103db00039f583e521f0a3ebf0900628e02410fb11
:103dc0007a007906123bcde5a8f8c2af9004e1e095
:103dd000c2e2f0753400e8a2e7a2e792af7f0202e8
:103de00024c8c0e0c0d075d018c092c0f0e5d1f8aa
:103df00075d100c2c0a2e350097b037a0079041296
:103e00003bcdd0f0023d11c0e0c0d075d010c092c3
:103e1000c021c022c082c083c0f05392fe9007919f
:103e2000123f22602a90074ce0700c7401f07b0076
:103e30007a007904123bcdee900791f0e5c1c0e025
:103e400074932521f582e43407f583d0e0800be5f7
:103e5000c4a2e6500690074b7401f0023f11c0e087
:103e6000c0d075d010c092c021c022c082c083c013
:103e7000f0c2e95392fe90074ee0fa90074de09aa7
:103e8000543ff86029744f2af582e43407f583e043
:103e9000f974012a543f90074ef089c190078fe0d2
:103ea0006870197b027a007904123bcd800ee5a878
:103eb000f8c2af9004e1e0c2e3123f908053c0e04b
:103ec000c0d075d010c092c021c022c082c083c0b3
:103ed000f05392fe90081b123f2260299007d6e013
:103ee000700b7401f07b00fa7904123bcdee900860
:103ef0001bf0e5f9c0e0741d2521f582e43408f5d6
:103f000083d0e0800be5fba2e650069007d5740154
:103f1000f0d0f0d083d082d022d021d092d0d0d097
:103f2000e032e0f52174012521543ffea3e06e222a
:103f3000c0e0c0d075d010c092c021c022c082c0e5
:103f400083c0f0c2ea5392fe9007d8e0fa9007d7f8
:103f5000e09a543ff8602974d92af582e43407f5d1
:103f600083e0f974012a543f9007d8f089f990084a
:103f700019e06870197b027a017904123bcd800e3a
:103f8000e5a8f8c2af9004e1e0c2e4123f9080815e
:103f9000f0753400e8a2e7e433f9e8a2e792af2233
:103fa00003060302020303020602030301050202e1
:103fb00001000101010101000003020000050002ef
:103fc00007070002030101010202010f00080305b7
:103fd0000502070406080606050304040103060299
:103fe00002010109010102010102010201010305af
:103ff00000010002000000030202010505030100a8
:10400000000002010404020302040104010074f62a
:104010001222f775210c752200782112253f7c00b1
:104020007d007a547b60121d6c02773cc082c08395
:104030008a828b8380075392fee0f5d9a3e9f87456
:10404000ff28190470f002674fc082c0838a828bf8
:10405000838007e5d95392fef0a3e9f874ff28198d
:104060000470f002674f74f61222f774fe12229069
:1040700012252be970169004c7e06401700e9003be
:10408000f7e0640170061217000241719003f7e037
:10409000702412417f60160592a3a3a3a3a3a3a338
:1040a000a3e0f91217c6900404e4f0a3f09003f51e
:1040b00074fff0024171900408126708900406e052
:1040c000687003a3e0697900701c1219f48b22ea6e
:1040d0002402f8e43522f99003ef124c5f900406b5
:1040e0001241740241691219f49003ef126708ea51
:1040f000c398f8eb99f9e82404f521e439f5229006
:1041000003fc125b51c3e5219ce5229d402c9004e9
:1041100006125b51a3e02af8a3e03bf9e8c39cf840
:10412000e99df99003ef124c5f9003fcecf0a3edd6
:10413000f09003f1ecf0a3ed802f9003efe028f076
:10414000a3e039f09003fc1270b59003fc124174a7
:10415000f0900404e0f8a3e0c8242bf582e438f5dd
:1041600083e070047402800114f07aed7b0312384e
:104170006702773312670c9003f1e8f0a3e922900d
:104180000404e0f584a3e0f585e58445852274f018
:104190001222f7ea241ef582e43bf583124822e45a
:1041a000f523f524ea242af582e43bf5831241f84d
:1041b000faa3e0fb9004b11241f82af525a3e03bf5
:1041c000f526e4f527f52878217925121e169008a2
:1041d000c1782512209478217925121e169008c5e1
:1041e000782512209478217925121e96e521240243
:1041f000fae43522fb026cc1e0124a57747a28f5c2
:1042000082740839f583e02274f41222f774fe12e6
:10421000229012252b74fc12225f8a848b858532b2
:1042200082853383e41278daa3f090618fe0c0e0f6
:104230008532828533837821122094e5842521f507
:1042400082e585126a3cd0e0f0900928782112209e
:10425000948532828533837821121ff69009447841
:10426000211220948532828533837821121de74004
:10427000b98584828585831220e2853282853383e5
:104280001220ee7a008532828533837821122094c1
:10429000e521543ff8743f68601fe8601c85328256
:1042a000853383782112209474017821121f98128b
:1042b000440a0aeac3941b40cceac3941b5003028d
:1042c000421e858482858583782112209490088af5
:1042d000782112208185328285338378211220a3b0
:1042e00079007a0085328285338375210175220039
:1042f000ea782112224ce5223395e0f523f5247863
:1043000021122035e5214522452345246001090a73
:10431000eac3942040cee9c39402500302421e0532
:1043200092e0f88584828585830592a3e068701cfd
:10433000858482858583a3a3e06870108584828547
:104340008583a3a3a3e068700302421e858482854f
:1043500085831220e28532828533831220ee790034
:104360007a1f8532828533837821122094e5215487
:1043700003f874026860057401687001098532826f
:10438000853383782112209474017821121f9812aa
:10439000440a1aea70cce9c39419400302421e850c
:1043a00084828585837821122094741a7821121fc3
:1043b0009885328285338378211220a379007a058b
:1043c0008532828533837821122094e5215403f8c5
:1043d0007402686005740168700109853282853352
:1043e00083782112209474017821121f98853282db
:1043f00085338378211220a31aea70c4e9c394029a
:10440000500302421e740402762385328285338370
:10441000e521f0a3e522f0a3e523f0a3e524f022b3
:1044200074f61222f774fe12229012252b8a848bc6
:1044300085e9701e752108752200782112253f7cc0
:10444000007d00121d6c740212227574010592f039
:1044500080280592e0a2e0e433f075210775220080
:104460000592782112253f7c007d000592a3aa8445
:10447000ab85121d6c7402122275853282853383de
:104480005392fe02773974f61222f79004e1e0a20b
:10449000e04079d2f090ff34e0a2e730f001b34081
:1044a00008a2e330f001b350031217487930121913
:1044b000f48a218b22ae21af229061b1e4f0e0704a
:1044c000f87403f0e0640370f81217ba9004e1e0a6
:1044d000d2e0f0753400e59ea2e640fae594a2e24f
:1044e0004009759403e594a2e250fa79001219f498
:1044f0008a218b22c3ee9521feef9522ff54807016
:1045000004ee4f7007e5e170fc75e121027741741c
:10451000f61222f7e9fe60067ca17d0480047c9bf4
:104520007d04752106752200782112253f7a167bbd
:1045300060121d667402122275906015e0c2e0f0f0
:10454000ee6004780180027800e048f00277417460
:10455000f61222f7e9fe7521067522007821122550
:104560003feafcebfd7a1c7b60121d66740212228e
:1045700075906015e0c2e1f0ee6004780280027888
:104580000080c674f71222f774fe12229012252bb7
:10459000e9fe8c848d85740b1222c9e0ff74072f0d
:1045a000f5d98ed979061216408007439201e0f5bd
:1045b000d9a3eff874ff281f0470f0e5e170fc75d3
:1045c000e195026ee874f61222f7e9fe9004641297
:1045d0006a656004793a8058906022e0f874ff6858
:1045e00070047907804a7f0080040fc313f8e8a2a3
:1045f000e040f7752106752200782112253feafc7c
:10460000ebfdef1246d1121d667402122275752160
:1046100001ef782112224caf21eff4f8906023e0f3
:1046200058f0ee6003e04ff0906022e04ff0790028
:1046300002774174f31222f774fe12229012252b96
:1046400089258a848b85900464126a656004793aae
:104650008066906022e0f522a3e0ff7521017e00d4
:10466000e52255216043e5256007852182a88280e7
:10467000027800ef552168703075230675240078a4
:104680002312253fac84ad85ee1246d1121d607415
:10469000021222758b24ea4524700ee521f4f8906d
:1046a0006022e058f07900800f0ee521c333f52138
:1046b000eec3940840aa791285328285338312258d
:1046c0003374021222757f050223cf7cca7d04e574
:1046d0002275f006a4f8a9f0742428fa746039fb56
:1046e00022c082c0835392fe906022e4024dcc74bb
:1046f000f01222f774fe12229012252b8c278d289f
:10470000eafcebfdea24faf8eb12481940030247f1
:10471000f8e52724faf8e52812481940030247f87b
:10472000c3e5279ae5289b50030247f87416122226
:10473000c912760dc3ee94f5ef940140030247f8d9
:1047400074141222c9124822e52124f6f8e5221237
:104750004ae69477e9940c40030247f89004d1e0cc
:10476000f8c394024037e8c333f88882858225ec89
:10477000f8edf9aa257b001221d48a238b24a823e3
:10478000a924e8496017ec2525fae43dfbeac39823
:10479000fceb99fdc3e5279ce5289d405b740378fd
:1047a0002112224cc021c022ee2401f525e43ff560
:1047b00026e4f527f5288c218d22f523f52478258c
:1047c0007921121e16d022d02178217925122009b4
:1047d0008521258522268523278524289009b578db
:1047e00025122035e525452645274528700ae5216f
:1047f0004522452345247004791280117412122237
:10480000c9124a5eec0592f0a3edf0790085328280
:104810008533835392fe026cb9124ae6947be99485
:104820000c22e0f521a3e0f5222274f01222f774a5
:10483000fe12229012252b74fb12225fe985328230
:10484000853383f074031222c9ecf0a3edf08a27bc
:104850008b28900495e0a2e040079003f5e0f46017
:1048600005790c024a54741c1222c9e0f523a3e016
:10487000f524741e1222c9124822782112253f788d
:104880002312253f74051222dd88258926782512fa
:10489000253f74201222c9125b51741e1222c912c4
:1048a0006fd112168e7406122275e96003024a5403
:1048b0001217cc8a258b26ae25af26ee4f700579d0
:1048c00009024a548e828f83a3a3a3a3a3a3a3a305
:1048d000e0c0e074031222c9124a5ed0e00592f0f3
:1048e000e52745286044752506752600059278253c
:1048f00012253fac27ad28ee240bfae43ffb121d36
:10490000667402122275ee2412125dcd8532828504
:104910003383e005926005e0d2e08003e0c2e0f07e
:104920000592906014e0c2e380080592906014e064
:10493000d2e3f074171222c9e06004780180027893
:1049400000900499e054fdfaa3e0fbe8124a57ea0c
:1049500048f8eb49f9900499e8f0a3e9125f34eec6
:104960002414fae43ffb1216587a0090618fe0c0dd
:10497000e0125f222418f582e439f583d0e0f00ad2
:10498000eac3940340e5124d7eee1268273ff58599
:1049900074011222c9126edbee2422f582e43ff587
:1049a00083e523f0a3e524f01261d8125885e521b0
:1049b000f0a3e522f09004b1e0c0e01261ced0e0b7
:1049c000f0ee241bf582e43ff5837402f00592e0db
:1049d000f8a3e0f91261bae80592124c609004c4a1
:1049e000e0c0e0ee24e5f582e43ff583d0e0f07529
:1049f0002105752200782112253f7cbf7d04ee241d
:104a000024fae43ffb121d667402122275eefaefdf
:104a1000fb12170690618fe054072405c0e0127363
:104a2000b4d0e0f0e5a8f8c2af900406126fd190c0
:104a300003fc1267679003f1eaf0a3eb1265bd90e7
:104a40000404eef0a3eff09003f574f0124d72122f
:104a5000178a7900026cae25e0f8e433f922e0f51c
:104a600084a3e0f5852274f71222f7e9feec4d608d
:104a70002cea4b6028ea24e0f8eb124add500aecfd
:104a800024e0f8ed124add40047900804dec2af86c
:104a9000ed3bc313f9e813900416124c60ee60046a
:104aa000900415f074091222c9e090041af0740bf6
:104ab0001222c9e09004136005e0d2e08003e0c256
:104ac000e0f0906014e054fcf0740a1222c9e0f89f
:104ad0006006906014e048f07901026ef9124ae62f
:104ae00094e1e9943f2234fff9c3e82274f61222dc
:104af000f7e99004136005e0d2e18003e0c2e1f041
:104b0000752106752200782112253feafcebfd7a1b
:104b10001c7b04121d667402122275790002774113
:104b200074f61222f774fe12229012252b74ff12d3
:104b3000225fe9fe9004147077e0606fa2afe43367
:104b4000f521c2af900464e0640a7004a3e0640439
:104b500070171270c54009759403e594a2e250faeb
:104b6000e5e170fc75e142800d90041274fff07a6b
:104b70000a7b04121784900414e4f0e521a2e09269
:104b8000af900412124d8864f460f690041812413c
:104b90008260180592a3a3a3a3a3a3a3a3e0f91281
:104ba00017c6900418e4f0a31265b4790002772eba
:104bb000e06004793a80f6eec3940290041b40044e
:104bc00074018001e4f090041ae0f8740368605204
:104bd000740268604d9004d2e06004790c80ce12bb
:104be00017cc8a218b22a821a922900418124c5f8d
:104bf000e8497004790980b5900495e04401f0908b
:104c00000499e054fdfaa3e0fb900413e0a2e0e471
:104c10003325e0f8ea48f8ebf9900499e8f0a3e9c5
:104c20008006900418e4f0a3f074016e90040e70f6
:104c300007e4f0a374088005740af0a3e4f090047c
:104c4000147401f090041274f4f07a0a7b041217c1
:104c50008a024babe5212434f582e43522f583e862
:104c600012761e2274f51222f774fe12229012257b
:104c70002b74ff12225fe9feeaffee7073a2afe42d
:104c800033f523c2af900464e064ed7004a3e064e4
:104c90000370171270c54009759403e594a2e250a1
:104ca000fae5e170fc75e14280309003f7e06401c1
:104cb000702812417f60160592a3a3a3a3a3a3a308
:104cc000a3e0f91217c6900404e4f0a3f09003f5f2
:104cd00074fff07aed7b031217849003f7e4f0e59c
:104ce00023a2e092af9003f5124d88f4600c80f59a
:104cf0009003f5e0f874f868701a790074011222d4
:104d00007585328285338312253374021222757fb2
:104d1000030223cf74ff686004793a80df9003f8c0
:104d2000e4f0906009f0eb9003f66005e0d2e480d7
:104d300003e0c2e4f0906014e0c2e2f0ef6004e04f
:104d4000d2e2f09003f9e4f09003f6e054b3f0906f
:104d5000600a124d819003fa126708a3124c5f900b
:104d600003f1124c5f9003f574f8124d7212178a1a
:104d70008088f09003f77401f07aed7b03229004b1
:104d8000977401f0a3e4f02212587ce022c082c0a4
:104d900083e95392fe90619a700e7433f0a37455b8
:104da000f09061a0743a8003125242801fc082c00a
:104db00083e9c3940f4002790ee9c454f0f853928a
:104dc000fe906186e0540f488002f0a3f0d083d0bb
:104dd0008202112974f61222f7e9ffc394204002df
:104de0007f1fe5a8fec2af8f217522007821122512
:104df0003feafcebfd7a227b04121d66740212224c
:104e000075ef900441f0eea2e7a2e792af0277417e
:104e100074f61222f7e9ffc3942040027f1fe5a831
:104e2000fec2af8f21752200782112253feafcebec
:104e3000fd7a427b04121d667402122275ef900403
:104e40006180c274f41222f774fe12229012252b94
:104e5000749f12225fe9fee5c7f521900368e0f533
:104e6000c7900367e0a2e0401ae0d2e0f00592901c
:104e700008c91225527b0a7a007900121a24740498
:104e800012227574ff6e70069004d1e08001ee85e9
:104e90003282853383f07523e77524007823122549
:104ea0003f7c007d007aed7b03121d6c74021222a0
:104eb00075853282853383e09004d1f0752366785e
:104ec0002312253f7c007d007a007b60121d6c74ec
:104ed00002122275900416e4f0a37402f0900415f7
:104ee0007407f090041274fff09003fe744b124d9f
:104ef000839003f17432124d839003f6f09003f324
:104f00007404124d839004107405124d837523258b
:104f1000782312253f7c007d007a6f7b04121d6c84
:104f2000740212227579017c357dff7ab17b0412ff
:104f300014009004b1e054f860037405f075230484
:104f4000782312253f7cff7d007abf7b04121d6c05
:104f500074021222759004c3741ff090046be4f085
:104f6000a3f0900404f0a3f074ff6e6011ee75f0ee
:104f7000e6a4faabf0121310900462126767900473
:104f8000621276139004d2e41252618018e58424f0
:104f9000e6f8e43585f9858482858583e8f0a3e920
:104fa00012524fe004f0e0fa1263e6ee24fff8e458
:104fb00034fff9c3ea98e499a2d265d03340ce8594
:104fc0008482858583e4f0a312524f90040ae4f0b2
:104fd000a3f090041274f4f09003ede4125f2a79c8
:104fe000107cc7fd74011222e512140075230678a7
:104ff0002312253f7c0e7d7874031222e5121d6674
:105000007402122275752310782312253f7c6a7d65
:105010000874131222c9aa82ab83121d667402128d
:105020002275781074011222c9e582125ddf358382
:10503000f583e064bff008e8c3942040e7740112f0
:1050400022dd88238924782312253f74031222ed60
:1050500074131222c9aa82ab831212da74021222ca
:105060007579107cd77dff74111222c9aa82ab8397
:10507000121400752310752400782312253f741331
:105080001222c9ac82ad8374031222e5121d607432
:10509000021222758b24ea45247005800c1217cc6d
:1050a000eeff74ff2f1e0470f4121a0c12183890c1
:1050b00061c67401f09061807440f0906191744811
:1050c000f09061bc7407f090619a125242f09061c6
:1050d0008674e1f0a37419f09061bce4f09003676a
:1050e000e0a2e7403879017c017dffaa32ab3312a0
:1050f0001400853282853383e0c4540ff0c3940fcb
:105100004003740ef0e0c454f0f0906186e0540f58
:10511000f8853282853383e048906186f074ff6eb3
:105120007007906192e0d2e7f0906022e4f0906026
:1051300009f043a90143b901759b00759100439a99
:1051400001c2a890f7f4e0a2e3500474e180027475
:10515000c09004d3f0906181e4f0a37480124d8379
:10516000794074211222ed7a037b00121892e9fb38
:1051700074ff6b60367a00802d74211222c9e5829b
:105180002af584e43583f585858482858583a3e0cb
:10519000c0e00592e0f87480125ddf3461f583d0e1
:1051a000e00592f00a0aeac39b40ce1226271216a7
:1051b0003a12179c9004c5e4f09004c7f09004c61e
:1051c000f09004c8f0906002740ff090f7f4e0a241
:1051d000e45004740580027402906003f09004644b
:1051e000e4f0a3f0900499e054fdf0900413e4f08f
:1051f00079067cea7dff7a9b7b04121400752306f6
:10520000752400782312253f7c007d007aa77b045b
:10521000121d6c74021222759004a77401f0121a08
:10522000488521c7d2f090ff34e0a2e730f001b307
:105230004008a2e330f001b3500312174874610232
:105240007623743ff0a3745af09061a0747f221209
:105250005261e00592a3a3a3a3a3a3a3a3f0059285
:1052600022f08532828533832274f61222f7e5a874
:10527000fec2af752106752200782112253feafc97
:10528000ebfd7aa17b04121d667402122275024e98
:105290000674f71222f774fe12229012252be9757c
:1052a000f0e6a4fcadf0900462e02cf584a3e03db0
:1052b000f585ea858482858583a3a3a3a3a3a3a3fd
:1052c000a3a3f00592a3a3a3a3a3a3a3a3a3a3743f
:1052d0000af08532828533830592026ef174f012f2
:1052e00022f774fe12229012252b74ff12225f8a7d
:1052f000278b281258753528f583e0547f1265c630
:10530000ae82af838a828b830592a3a3a3a3125894
:105310007c1268c48a828b83a3a3a3a3a3ac82adaf
:1053200083ee240af525e43ff526ee2411f521e469
:105330003ff522853282853383e0700302553414b1
:1053400070030254f014700302545e14700302568a
:105350009714700302579e1470030257fb147003d6
:105360000258021470030255ac1470030254131453
:1053700060661470030255b61470030255f214608f
:1053800009147003025583025848752305752400db
:10539000782312253fee243ffae43ffb121d66748a
:1053a00002122275852582852683e064077002e457
:1053b000f0852182852283e0d2e1f0a2e0400dacad
:1053c00027ad28eefaeffb1217ae8007aa27ab280d
:1053d0001218327b03025833852582852683e064c8
:1053e0000660030255b0852182852283e0d2e21255
:1053f0006e7ce4f0752108f522782112253faa235e
:10540000ab24121d667402122275aa27ab2812184b
:10541000328046852182852283e0d2e2f075210820
:10542000752200782112253faa23ab24121d667431
:10543000021222757901aa23ab2412165e7821127a
:105440002543782312253f7909ac27ad28eefaefe2
:10545000fb1216f474031222757b0402583312599e
:10546000027409f0121832900495e0a2e0400302a1
:10547000587079001219f48b24ea2403f8e43524d7
:10548000f98e828f83a3a3124c5f88218922900416
:1054900064e0f8a3e0f5838882a3a3a3a3e0252119
:1054a000fea3e03522ff0a0a0aab227930121a065f
:1054b000eefaeffb7940121a067954121a12c35011
:1054c0000c1217bae5e170fc75e121801d900367ad
:1054d000e0a2e04012aa21ab22121a009004b212fc
:1054e00020be12591880031217ba1218c20258703f
:1054f000ee125885126a65852582852683600474bc
:105500000c80027402f075210775220078211225a3
:105510003fee2457fae43ffb121d66740212227517
:10552000aa27ab28121832ee245c125933603a12c3
:1055300058ec80358525828526837401f075210b12
:10554000752200782112253fee244cfae43ffb122d
:105550001d667402122275aa27ab28121832ee2497
:105560005512593360031258ece5a8f521c2af7902
:1055700001eefaeffb121796e521a2e7a2e792af40
:10558000025870125902e064037021e4f085218210
:10559000852283e054e7f07b078e828f83a3a3a349
:1055a000a3a3a3a3a3e0fa7900123bcdaa27ab28bb
:1055b000121832025870852182852283e0d2e4f0ed
:1055c0007523007823122543e4f524782312253f20
:1055d000790bac27ad28eefaeffb1216f474031228
:1055e0002275852182852283e0c2e6f0d2e3f002b3
:1055f0005870852182852283e0d2e412626d852174
:1056000082852283e05005c2e7f080a0543ff07508
:1056100021007821122543e4f522782112253f79d3
:105620000bac27ad28eefaeffb1216f4740312222e
:1056300075752108782112253f1258dd121d6674f8
:1056400002122275752104782112253f1258ce12bc
:105650001d667402122275782112253f1258bf125e
:105660001d6674021222758525828526837403f0d7
:105670007521167821122543ee245ef521e43ff5cd
:1056800022782112253f7403c0e012182ceafcebab
:10569000fdd0e0f90258648525828526837404f0e4
:1056a000ee242ef584e43ff5857800797d1273e6cb
:1056b000126fd11221d489240592e028f8a3e03595
:1056c00024f9e8240108500109126e60e8059212dd
:1056d0004c60752316752400782312253fee245e56
:1056e000fae43ffb121d6674021222757908ee245b
:1056f00074fae43ffb121a4e7904ee247cfae43f7c
:10570000fb121a4e752308782312253f1258dd121a
:105710001d667402122275782312253f1258b012aa
:105720001d667402122275752304782312253f1218
:1057300058ce121d667402122275782312253f126c
:1057400058bf121d667402122275782312253f126b
:1057500058a1121d667402122275782312253f1279
:105760005892121d66740212227585218285228349
:10577000e04418f075210c7821122543ee2474f5cd
:1057800021e43ff522782112253f7904ac27ad288a
:10579000eefaeffb1216f474031222758060852175
:1057a00082852283e0d2e4f075210c7522007821f5
:1057b00012253fee2474fae43ffb121d66740212b8
:1057c0002275752108782112253f1258b0121d66e6
:1057d0007402122275752104782112253f1258a1f6
:1057e000121d667402122275782112253f125892fa
:1057f000121d6674021222750255ac1218327b0615
:105800008031121832900495e0a2e050118e828f00
:1058100083a3a3a3a3a3a3a3a3e0f912171885212d
:1058200082852283e054e7126e7c740b12626d4015
:105830003f7b078e828f83a3a3a3a3a3a3a3a3e08d
:10584000fa7900123bcd8028752101782112254379
:1058500074011222dd88218922782112253f7907df
:10586000ac27ad28eefaeffb1216f4740312227582
:105870007401026cb0ea2424f582e422e0853282cd
:10588000853383f022125889222420f582e43ff5e3
:105890008322ee247cfce43ffdee24aafae43ffbe5
:1058a00022ee247cfce43ffdee24bafae43ffb2226
:1058b000ee2474fce43ffdee2498fae43ffb22ee74
:1058c0002470fce43ffdee24a6fae43ffb22ee2424
:1058d00070fce43ffdee24b6fae43ffb22ee2468c0
:1058e000fce43ffdee2490fae43ffb228e828f839e
:1058f000a3a3a3a3a3a3a3a3a37428126e7c740ad7
:10590000f0228c828d83e08e828f83a3a3a3a3a336
:10591000a3a3a3a3126e7c22e5a8f8c2af9004e172
:10592000e0c2e012592722f0753400e8a2e7a2e7ae
:1059300092af22f584e43ff5851270ab12670c0537
:1059400092e0c398f8a3e099f9ee1258890592e025
:1059500028a3e03954802274f71222f774fe122231
:105960009012252beafeebffa2afe433f521c2af84
:10597000125a86eefceffd125a6712162e125a7159
:10598000700988828983eef0a3eff07901aa84abd5
:1059900085121796e521a2e092af85328285338386
:1059a000026ef174f71222f71258753bf583e0543a
:1059b0007ffe1259ca243dfae439fb12162e7b05ec
:1059c000eefa7900123bcd026ef9eafcebfdee75c2
:1059d000f0e6a4f8a9f09004621259dd22126c8955
:1059e00039f9e82274f71222f774fe122290122578
:1059f0002beafeebffee4f60618e828f83a3a3e064
:105a000070051218328053125a86a2afe433f52182
:105a1000c2af125a5d125b4b402ca2e3eefceffdcd
:105a2000401f125a6712162e125a71700988828905
:105a300083eef0a3eff07901aa84ab85121796806c
:105a40001312162e800eeefceffd12162eaa84ab5a
:105a5000851212f8e521a2e092af02599ae584245a
:105a60003bfae43585fb22e5842439fae43585fbed
:105a700022e5842437f8e43585f988828983e0fac1
:105a8000a3e0fbea4b22125dc5e0547f1263ea22d9
:105a900074f41222f774fe12229012252b8a848b42
:105aa00085ecfeedffee4f7003025b488584828536
:105ab0008583a3a3a3a3a3a3a3a3e0c0e0125dc116
:105ac000d0e0125dd67403f074101222c9e0f52301
:105ad000740125238e828f83a3a3125dd6a3e9f0e0
:105ae000e523601f752400782312253f74101222cd
:105af000c9125b51ee2405fae43ffb121d667402e5
:105b0000122275a2afe433f521c2af125b4beefc5b
:105b1000effde584500f125a5f121634aa84ab854c
:105b20001212f8801d125a6912162e125a7170093b
:105b300088828983eef0a3eff07901aa84ab851205
:105b40001796e521a2e092af027626126350a2e7f3
:105b500022e0fca3e0fd2274f01222f774fe122270
:105b60009012252beafeebff8e848f850592a3a36e
:105b7000e5d914f0e5d98e828f830592a3a3a3f013
:105b8000a2e5502a0592e0c3940640227800e5d9a8
:105b9000c0e074ca125ddf3404f583d0e05392fe96
:105ba000f008e8c3940640e60592e024faf0780095
:105bb000800e125ddf3ff583a3a3a3a3d0e0f0081e
:105bc0008584828585835392fee0f9e8c399e5d9ff
:105bd000c0e0ee40dd2425f582e43ff583d0e0f01f
:105be000ee2426125dcde5d90592f0f8a2e7400338
:105bf000025d62740358242505929004d0f005924a
:105c0000e054fcf0240c7003025dba24fc600a121c
:105c100018327a007b00025dbe05929003f6e0a286
:105c2000e44003025dba906009e0f8906022e04829
:105c3000f5267522007521018e828f83a3a3a3e030
:105c4000f8744058f528906023e0f527740f58f554
:105c50002574046525600ee5a8f8c2af9003f6e050
:105c6000c2e61265bde52655216031e5286007854d
:105c70002182a88280027800e527552168701d7571
:105c80002306752400782312253f1246cb121d608f
:105c900074021222758b24ea4524600fe521c33378
:105ca000f5210522e522c3940840ba906014e0a2d1
:105cb000e274086522500f7003025dba906009e03b
:105cc0004521f0025dba6036906009e055217013fd
:105cd000e04521f0e525607a740665256003025de4
:105ce000ba806f7404652570129003f6e0a2e65046
:105cf0000ae5a8f8c2afe0c2e68062025d9d74ffcb
:105d000065267003025dba7521017522008008e5e1
:105d100021c333f5210522e526552170f2752306ae
:105d2000752400782312253f1246cb121d6674029b
:105d3000122275e521f4f8906023e058125dd6e058
:105d4000a2e65007906023e04521f0906009e0450d
:105d500021f0e5a8f8c2af9003f6e0d2e61265bde7
:105d60008058748048fb125dc1eb0592f0547f129d
:105d700063e6e5842411f8e43585f9888489858e05
:105d8000828f83a3a3a3e05403640360190592e008
:105d9000a2e450127a3d747f5bf91216d6eefaef48
:105da000fb1218328010439201e0a2e6500cc2e4cc
:105db000f0effb1212fe7e007f00eefaeffb0248ce
:105dc0000d125dc522ee1258763ff58322f8e43fae
:105dd000f98884898522f08e828f83a3a3a3222849
:105de000f582e42274f21222f774fe122290122538
:105df0002b12760a9004c7e014f0906060e0c0e0d7
:105e00001261b0d0e0f0e5d9fb1261c4e5d9a2e699
:105e1000e05004d2e08002c2e0f07a00e5d9c0e0b0
:105e2000125f22240bf582e439f583d0e0f00aea10
:105e3000c3940640e774fb2bf88002e5d974ff2871
:105e4000180470f790600ee0f525a3e0f5268e8427
:105e50008f850592a3a379101219f4ea2525f8eb92
:105e60003526f9e82404500109858482858583124a
:105e70004c6090046b800488828983126a65604755
:105e800088828983a3a3a3a3a3a3a3a3e0a2e7403b
:105e9000e6858482858583e0a2e092f0888289830a
:105ea000a3a3e0a2e020f001b3401c900367e0a2ae
:105eb000e00592e0400924fff0a3e034ff800724ce
:105ec00001f0a3e03400f08e828f835392fea3a3ef
:105ed000a3a3a3a37404124d83900404125f2a9019
:105ee00003f7e4f0ee1261a77403125f348e828f21
:105ef00083a3a3a3a3a3a3a3a3a3f01214a27b0130
:105f00008e828f83a3a3a3a3a3a3a3a3e0fa790004
:105f1000123bcdeefaeffb12386785328285338370
:105f20008022ee2af8e43ff9e822f0a3f09003f58e
:105f300074fff022f01273c2e4f0228532828533be
:105f4000835392fe12253374021222757f060223b8
:105f5000cf74f71222f774fe12229012252bea2436
:105f6000e5f8e43bf988828983e4f0fcec13131331
:105f7000541ff8ea28f8e43bf9e82424f584e439ce
:105f8000f585439201e0c0e074075cf8d0e0b8000a
:105f9000028004c313d8fca2e0501c0592e0f8ea8a
:105fa00028f8e43bf9e824c0f584e439f585ec05ec
:105fb00092f00592e004f00cecc3942540ae026e22
:105fc000e874f21222f774fe12229012252b90042c
:105fd000c7e014f090041812760de5d9f8e5d9f968
:105fe00018740f59640570057422686010080880e1
:105ff00002e5d974ff28180470f70261a49060606c
:10600000e0c0e01261b0d0e0f0124d7e1261c4e950
:10601000a2e6e05004d2e08002c2e0f07906ee246d
:106020000bfae43ffb121646ee2414f584e43ff528
:10603000857906aa84ab851216467916aa84ab85a3
